{
  "_format": "hh-sol-artifact-1",
  "contractName": "GameItem",
  "sourceName": "contracts/GameItem.sol",
  "abi": [
    {
      "inputs": [],
      "stateMutability": "nonpayable",
      "type": "constructor"
    },
    {
      "anonymous": false,
      "inputs": [
        {
          "indexed": true,
          "internalType": "address",
          "name": "owner",
          "type": "address"
        },
        {
          "indexed": true,
          "internalType": "address",
          "name": "approved",
          "type": "address"
        },
        {
          "indexed": true,
          "internalType": "uint256",
          "name": "tokenId",
          "type": "uint256"
        }
      ],
      "name": "Approval",
      "type": "event"
    },
    {
      "anonymous": false,
      "inputs": [
        {
          "indexed": true,
          "internalType": "address",
          "name": "owner",
          "type": "address"
        },
        {
          "indexed": true,
          "internalType": "address",
          "name": "operator",
          "type": "address"
        },
        {
          "indexed": false,
          "internalType": "bool",
          "name": "approved",
          "type": "bool"
        }
      ],
      "name": "ApprovalForAll",
      "type": "event"
    },
    {
      "anonymous": false,
      "inputs": [
        {
          "indexed": false,
          "internalType": "uint256",
          "name": "tokenId",
          "type": "uint256"
        },
        {
          "indexed": false,
          "internalType": "string",
          "name": "tokenURO",
          "type": "string"
        }
      ],
      "name": "GameItemMinted",
      "type": "event"
    },
    {
      "anonymous": false,
      "inputs": [
        {
          "indexed": true,
          "internalType": "address",
          "name": "from",
          "type": "address"
        },
        {
          "indexed": true,
          "internalType": "address",
          "name": "to",
          "type": "address"
        },
        {
          "indexed": true,
          "internalType": "uint256",
          "name": "tokenId",
          "type": "uint256"
        }
      ],
      "name": "Transfer",
      "type": "event"
    },
    {
      "inputs": [],
      "name": "MAX_PER_MINT",
      "outputs": [
        {
          "internalType": "uint256",
          "name": "",
          "type": "uint256"
        }
      ],
      "stateMutability": "view",
      "type": "function"
    },
    {
      "inputs": [],
      "name": "MAX_SUPPLY",
      "outputs": [
        {
          "internalType": "uint256",
          "name": "",
          "type": "uint256"
        }
      ],
      "stateMutability": "view",
      "type": "function"
    },
    {
      "inputs": [],
      "name": "NAME",
      "outputs": [
        {
          "internalType": "string",
          "name": "",
          "type": "string"
        }
      ],
      "stateMutability": "view",
      "type": "function"
    },
    {
      "inputs": [],
      "name": "PRICE",
      "outputs": [
        {
          "internalType": "uint256",
          "name": "",
          "type": "uint256"
        }
      ],
      "stateMutability": "view",
      "type": "function"
    },
    {
      "inputs": [],
      "name": "SYMBOL",
      "outputs": [
        {
          "internalType": "string",
          "name": "",
          "type": "string"
        }
      ],
      "stateMutability": "view",
      "type": "function"
    },
    {
      "inputs": [
        {
          "internalType": "address",
          "name": "to",
          "type": "address"
        },
        {
          "internalType": "uint256",
          "name": "tokenId",
          "type": "uint256"
        }
      ],
      "name": "approve",
      "outputs": [],
      "stateMutability": "nonpayable",
      "type": "function"
    },
    {
      "inputs": [
        {
          "internalType": "address",
          "name": "player",
          "type": "address"
        }
      ],
      "name": "awardItem",
      "outputs": [
        {
          "internalType": "uint256",
          "name": "",
          "type": "uint256"
        }
      ],
      "stateMutability": "payable",
      "type": "function"
    },
    {
      "inputs": [
        {
          "internalType": "address",
          "name": "owner",
          "type": "address"
        }
      ],
      "name": "balanceOf",
      "outputs": [
        {
          "internalType": "uint256",
          "name": "",
          "type": "uint256"
        }
      ],
      "stateMutability": "view",
      "type": "function"
    },
    {
      "inputs": [
        {
          "internalType": "uint256",
          "name": "tokenId",
          "type": "uint256"
        }
      ],
      "name": "getApproved",
      "outputs": [
        {
          "internalType": "address",
          "name": "",
          "type": "address"
        }
      ],
      "stateMutability": "view",
      "type": "function"
    },
    {
      "inputs": [
        {
          "internalType": "address",
          "name": "owner",
          "type": "address"
        },
        {
          "internalType": "address",
          "name": "operator",
          "type": "address"
        }
      ],
      "name": "isApprovedForAll",
      "outputs": [
        {
          "internalType": "bool",
          "name": "",
          "type": "bool"
        }
      ],
      "stateMutability": "view",
      "type": "function"
    },
    {
      "inputs": [],
      "name": "name",
      "outputs": [
        {
          "internalType": "string",
          "name": "",
          "type": "string"
        }
      ],
      "stateMutability": "view",
      "type": "function"
    },
    {
      "inputs": [
        {
          "internalType": "uint256",
          "name": "tokenId",
          "type": "uint256"
        }
      ],
      "name": "ownerOf",
      "outputs": [
        {
          "internalType": "address",
          "name": "",
          "type": "address"
        }
      ],
      "stateMutability": "view",
      "type": "function"
    },
    {
      "inputs": [
        {
          "internalType": "address",
          "name": "from",
          "type": "address"
        },
        {
          "internalType": "address",
          "name": "to",
          "type": "address"
        },
        {
          "internalType": "uint256",
          "name": "tokenId",
          "type": "uint256"
        }
      ],
      "name": "safeTransferFrom",
      "outputs": [],
      "stateMutability": "nonpayable",
      "type": "function"
    },
    {
      "inputs": [
        {
          "internalType": "address",
          "name": "from",
          "type": "address"
        },
        {
          "internalType": "address",
          "name": "to",
          "type": "address"
        },
        {
          "internalType": "uint256",
          "name": "tokenId",
          "type": "uint256"
        },
        {
          "internalType": "bytes",
          "name": "_data",
          "type": "bytes"
        }
      ],
      "name": "safeTransferFrom",
      "outputs": [],
      "stateMutability": "nonpayable",
      "type": "function"
    },
    {
      "inputs": [
        {
          "internalType": "address",
          "name": "operator",
          "type": "address"
        },
        {
          "internalType": "bool",
          "name": "approved",
          "type": "bool"
        }
      ],
      "name": "setApprovalForAll",
      "outputs": [],
      "stateMutability": "nonpayable",
      "type": "function"
    },
    {
      "inputs": [
        {
          "internalType": "bytes4",
          "name": "interfaceId",
          "type": "bytes4"
        }
      ],
      "name": "supportsInterface",
      "outputs": [
        {
          "internalType": "bool",
          "name": "",
          "type": "bool"
        }
      ],
      "stateMutability": "view",
      "type": "function"
    },
    {
      "inputs": [],
      "name": "symbol",
      "outputs": [
        {
          "internalType": "string",
          "name": "",
          "type": "string"
        }
      ],
      "stateMutability": "view",
      "type": "function"
    },
    {
      "inputs": [
        {
          "internalType": "uint256",
          "name": "tokenId",
          "type": "uint256"
        }
      ],
      "name": "tokenURI",
      "outputs": [
        {
          "internalType": "string",
          "name": "",
          "type": "string"
        }
      ],
      "stateMutability": "view",
      "type": "function"
    },
    {
      "inputs": [
        {
          "internalType": "address",
          "name": "_owner",
          "type": "address"
        }
      ],
      "name": "tokensCountByOwner",
      "outputs": [
        {
          "internalType": "uint256",
          "name": "",
          "type": "uint256"
        }
      ],
      "stateMutability": "view",
      "type": "function"
    },
    {
      "inputs": [
        {
          "internalType": "address",
          "name": "from",
          "type": "address"
        },
        {
          "internalType": "address",
          "name": "to",
          "type": "address"
        },
        {
          "internalType": "uint256",
          "name": "tokenId",
          "type": "uint256"
        }
      ],
      "name": "transferFrom",
      "outputs": [],
      "stateMutability": "nonpayable",
      "type": "function"
    }
  ],
  "bytecode": "0x60806040523480156200001157600080fd5b506040518060400160405280600881526020017f47616d654974656d0000000000000000000000000000000000000000000000008152506040518060400160405280600381526020017f49544d000000000000000000000000000000000000000000000000000000000081525081600090805190602001906200009692919062000124565b508060019080519060200190620000af92919062000124565b505050604051620000c090620001b5565b604051809103906000f080158015620000dd573d6000803e3d6000fd5b50600960006101000a81548173ffffffffffffffffffffffffffffffffffffffff021916908373ffffffffffffffffffffffffffffffffffffffff16021790555062000247565b8280546200013290620001e2565b90600052602060002090601f016020900481019282620001565760008555620001a2565b82601f106200017157805160ff1916838001178555620001a2565b82800160010185558215620001a2579182015b82811115620001a157825182559160200191906001019062000184565b5b509050620001b19190620001c3565b5090565b61093f80620037c983390190565b5b80821115620001de576000816000905550600101620001c4565b5090565b60006002820490506001821680620001fb57607f821691505b6020821081141562000212576200021162000218565b5b50919050565b7f4e487b7100000000000000000000000000000000000000000000000000000000600052602260045260246000fd5b61357280620002576000396000f3fe60806040526004361061011f5760003560e01c80638d859f3e116100a0578063bd066bbb11610064578063bd066bbb146103e7578063c87b56dd14610424578063e985e9c514610461578063f2fb21201461049e578063f76f8d78146104ce5761011f565b80638d859f3e1461031457806395d89b411461033f578063a22cb4651461036a578063a3f4df7e14610393578063b88d4fde146103be5761011f565b806323b872dd116100e757806323b872dd1461021d57806332cb6b0c1461024657806342842e0e146102715780636352211e1461029a57806370a08231146102d75761011f565b806301ffc9a71461012457806306fdde0314610161578063081812fc1461018c578063095ea7b3146101c957806309d42b30146101f2575b600080fd5b34801561013057600080fd5b5061014b600480360381019061014691906121c0565b6104f9565b60405161015891906127a7565b60405180910390f35b34801561016d57600080fd5b506101766105db565b60405161018391906127dd565b60405180910390f35b34801561019857600080fd5b506101b360048036038101906101ae9190612212565b61066d565b6040516101c09190612740565b60405180910390f35b3480156101d557600080fd5b506101f060048036038101906101eb9190612184565b6106f2565b005b3480156101fe57600080fd5b5061020761080a565b6040516102149190612a3f565b60405180910390f35b34801561022957600080fd5b50610244600480360381019061023f919061207e565b61080f565b005b34801561025257600080fd5b5061025b61086f565b6040516102689190612a3f565b60405180910390f35b34801561027d57600080fd5b506102986004803603810190610293919061207e565b610874565b005b3480156102a657600080fd5b506102c160048036038101906102bc9190612212565b610894565b6040516102ce9190612740565b60405180910390f35b3480156102e357600080fd5b506102fe60048036038101906102f99190612019565b610946565b60405161030b9190612a3f565b60405180910390f35b34801561032057600080fd5b506103296109fe565b6040516103369190612a3f565b60405180910390f35b34801561034b57600080fd5b50610354610a09565b60405161036191906127dd565b60405180910390f35b34801561037657600080fd5b50610391600480360381019061038c9190612148565b610a9b565b005b34801561039f57600080fd5b506103a8610ab1565b6040516103b591906127dd565b60405180910390f35b3480156103ca57600080fd5b506103e560048036038101906103e091906120cd565b610aea565b005b3480156103f357600080fd5b5061040e60048036038101906104099190612019565b610b4c565b60405161041b9190612a3f565b60405180910390f35b34801561043057600080fd5b5061044b60048036038101906104469190612212565b610b63565b60405161045891906127dd565b60405180910390f35b34801561046d57600080fd5b5061048860048036038101906104839190612042565b610cb5565b60405161049591906127a7565b60405180910390f35b6104b860048036038101906104b39190612019565b610d49565b6040516104c59190612a3f565b60405180910390f35b3480156104da57600080fd5b506104e3610f05565b6040516104f091906127dd565b60405180910390f35b60007f80ac58cd000000000000000000000000000000000000000000000000000000007bffffffffffffffffffffffffffffffffffffffffffffffffffffffff1916827bffffffffffffffffffffffffffffffffffffffffffffffffffffffff191614806105c457507f5b5e139f000000000000000000000000000000000000000000000000000000007bffffffffffffffffffffffffffffffffffffffffffffffffffffffff1916827bffffffffffffffffffffffffffffffffffffffffffffffffffffffff1916145b806105d457506105d382610f3e565b5b9050919050565b6060600080546105ea90612cf8565b80601f016020809104026020016040519081016040528092919081815260200182805461061690612cf8565b80156106635780601f1061063857610100808354040283529160200191610663565b820191906000526020600020905b81548152906001019060200180831161064657829003601f168201915b5050505050905090565b600061067882610fa8565b6106b7576040517f08c379a00000000000000000000000000000000000000000000000000000000081526004016106ae9061297f565b60405180910390fd5b6004600083815260200190815260200160002060009054906101000a900473ffffffffffffffffffffffffffffffffffffffff169050919050565b60006106fd82610894565b90508073ffffffffffffffffffffffffffffffffffffffff168373ffffffffffffffffffffffffffffffffffffffff16141561076e576040517f08c379a0000000000000000000000000000000000000000000000000000000008152600401610765906129ff565b60405180910390fd5b8073ffffffffffffffffffffffffffffffffffffffff1661078d611014565b73ffffffffffffffffffffffffffffffffffffffff1614806107bc57506107bb816107b6611014565b610cb5565b5b6107fb576040517f08c379a00000000000000000000000000000000000000000000000000000000081526004016107f2906128bf565b60405180910390fd5b610805838361101c565b505050565b600181565b61082061081a611014565b826110d5565b61085f576040517f08c379a000000000000000000000000000000000000000000000000000000000815260040161085690612a1f565b60405180910390fd5b61086a8383836111b3565b505050565b600881565b61088f83838360405180602001604052806000815250610aea565b505050565b6000806002600084815260200190815260200160002060009054906101000a900473ffffffffffffffffffffffffffffffffffffffff169050600073ffffffffffffffffffffffffffffffffffffffff168173ffffffffffffffffffffffffffffffffffffffff16141561093d576040517f08c379a0000000000000000000000000000000000000000000000000000000008152600401610934906128ff565b60405180910390fd5b80915050919050565b60008073ffffffffffffffffffffffffffffffffffffffff168273ffffffffffffffffffffffffffffffffffffffff1614156109b7576040517f08c379a00000000000000000000000000000000000000000000000000000000081526004016109ae906128df565b60405180910390fd5b600360008373ffffffffffffffffffffffffffffffffffffffff1673ffffffffffffffffffffffffffffffffffffffff168152602001908152602001600020549050919050565b66038d7ea4c6800081565b606060018054610a1890612cf8565b80601f0160208091040260200160405190810160405280929190818152602001828054610a4490612cf8565b8015610a915780601f10610a6657610100808354040283529160200191610a91565b820191906000526020600020905b815481529060010190602001808311610a7457829003601f168201915b5050505050905090565b610aad610aa6611014565b838361141a565b5050565b6040518060400160405280600881526020017f47616d654974656d00000000000000000000000000000000000000000000000081525081565b610afb610af5611014565b836110d5565b610b3a576040517f08c379a0000000000000000000000000000000000000000000000000000000008152600401610b3190612a1f565b60405180910390fd5b610b4684848484611587565b50505050565b600080610b5883610946565b905080915050919050565b6060610b6e82610fa8565b610bad576040517f08c379a0000000000000000000000000000000000000000000000000000000008152600401610ba49061295f565b60405180910390fd5b6000600660008481526020019081526020016000208054610bcd90612cf8565b80601f0160208091040260200160405190810160405280929190818152602001828054610bf990612cf8565b8015610c465780601f10610c1b57610100808354040283529160200191610c46565b820191906000526020600020905b815481529060010190602001808311610c2957829003601f168201915b505050505090506000610c576115e3565b9050600081511415610c6d578192505050610cb0565b600082511115610ca2578082604051602001610c8a9291906126b7565b60405160208183030381529060405292505050610cb0565b610cab846115fa565b925050505b919050565b6000600560008473ffffffffffffffffffffffffffffffffffffffff1673ffffffffffffffffffffffffffffffffffffffff16815260200190815260200160002060008373ffffffffffffffffffffffffffffffffffffffff1673ffffffffffffffffffffffffffffffffffffffff16815260200190815260200160002060009054906101000a900460ff16905092915050565b60006008610d5760086116a1565b10610d97576040517f08c379a0000000000000000000000000000000000000000000000000000000008152600401610d8e906129df565b60405180910390fd5b66038d7ea4c68000341015610de1576040517f08c379a0000000000000000000000000000000000000000000000000000000008152600401610dd89061299f565b60405180910390fd5b610deb60076116af565b6000610df760076116a1565b90506000610e04826116c5565b9050610e108483611723565b610e1a82826118fd565b6000610e2833868585611971565b9050600960009054906101000a900473ffffffffffffffffffffffffffffffffffffffff1673ffffffffffffffffffffffffffffffffffffffff16632c95ad52826040518263ffffffff1660e01b8152600401610e8591906127c2565b600060405180830381600087803b158015610e9f57600080fd5b505af1158015610eb3573d6000803e3d6000fd5b50505050610ec160086116af565b7fe2d89a0fd07f9a2f013521b8d43f4b70ad47194061161f207f6c4f29090c9b288383604051610ef2929190612a5a565b60405180910390a1829350505050919050565b6040518060400160405280600381526020017f49544d000000000000000000000000000000000000000000000000000000000081525081565b60007f01ffc9a7000000000000000000000000000000000000000000000000000000007bffffffffffffffffffffffffffffffffffffffffffffffffffffffff1916827bffffffffffffffffffffffffffffffffffffffffffffffffffffffff1916149050919050565b60008073ffffffffffffffffffffffffffffffffffffffff166002600084815260200190815260200160002060009054906101000a900473ffffffffffffffffffffffffffffffffffffffff1673ffffffffffffffffffffffffffffffffffffffff1614159050919050565b600033905090565b816004600083815260200190815260200160002060006101000a81548173ffffffffffffffffffffffffffffffffffffffff021916908373ffffffffffffffffffffffffffffffffffffffff160217905550808273ffffffffffffffffffffffffffffffffffffffff1661108f83610894565b73ffffffffffffffffffffffffffffffffffffffff167f8c5be1e5ebec7d5bd14f71427d1e84f3dd0314c0f7b2291e5b200ac8c7c3b92560405160405180910390a45050565b60006110e082610fa8565b61111f576040517f08c379a00000000000000000000000000000000000000000000000000000000081526004016111169061289f565b60405180910390fd5b600061112a83610894565b90508073ffffffffffffffffffffffffffffffffffffffff168473ffffffffffffffffffffffffffffffffffffffff16148061119957508373ffffffffffffffffffffffffffffffffffffffff166111818461066d565b73ffffffffffffffffffffffffffffffffffffffff16145b806111aa57506111a98185610cb5565b5b91505092915050565b8273ffffffffffffffffffffffffffffffffffffffff166111d382610894565b73ffffffffffffffffffffffffffffffffffffffff1614611229576040517f08c379a00000000000000000000000000000000000000000000000000000000081526004016112209061281f565b60405180910390fd5b600073ffffffffffffffffffffffffffffffffffffffff168273ffffffffffffffffffffffffffffffffffffffff161415611299576040517f08c379a00000000000000000000000000000000000000000000000000000000081526004016112909061285f565b60405180910390fd5b6112a48383836119aa565b6112af60008261101c565b6001600360008573ffffffffffffffffffffffffffffffffffffffff1673ffffffffffffffffffffffffffffffffffffffff16815260200190815260200160002060008282546112ff9190612c04565b925050819055506001600360008473ffffffffffffffffffffffffffffffffffffffff1673ffffffffffffffffffffffffffffffffffffffff16815260200190815260200160002060008282546113569190612b23565b92505081905550816002600083815260200190815260200160002060006101000a81548173ffffffffffffffffffffffffffffffffffffffff021916908373ffffffffffffffffffffffffffffffffffffffff160217905550808273ffffffffffffffffffffffffffffffffffffffff168473ffffffffffffffffffffffffffffffffffffffff167fddf252ad1be2c89b69c2b068fc378daa952ba7f163c4a11628f55a4df523b3ef60405160405180910390a46114158383836119af565b505050565b8173ffffffffffffffffffffffffffffffffffffffff168373ffffffffffffffffffffffffffffffffffffffff161415611489576040517f08c379a00000000000000000000000000000000000000000000000000000000081526004016114809061287f565b60405180910390fd5b80600560008573ffffffffffffffffffffffffffffffffffffffff1673ffffffffffffffffffffffffffffffffffffffff16815260200190815260200160002060008473ffffffffffffffffffffffffffffffffffffffff1673ffffffffffffffffffffffffffffffffffffffff16815260200190815260200160002060006101000a81548160ff0219169083151502179055508173ffffffffffffffffffffffffffffffffffffffff168373ffffffffffffffffffffffffffffffffffffffff167f17307eab39ab6107e8899845ad3d59bd9653f200f220920489ca2b5937696c318360405161157a91906127a7565b60405180910390a3505050565b6115928484846111b3565b61159e848484846119b4565b6115dd576040517f08c379a00000000000000000000000000000000000000000000000000000000081526004016115d4906127ff565b60405180910390fd5b50505050565b606060405180602001604052806000815250905090565b606061160582610fa8565b611644576040517f08c379a000000000000000000000000000000000000000000000000000000000815260040161163b906129bf565b60405180910390fd5b600061164e6115e3565b9050600081511161166e5760405180602001604052806000815250611699565b8061167884611b4b565b6040516020016116899291906126b7565b6040516020818303038152906040525b915050919050565b600081600001549050919050565b6001816000016000828254019250508190555050565b606060006116d283611b4b565b6040516020016116e291906126db565b60405160208183030381529060405290506116fc81611cf8565b60405160200161170c919061271e565b604051602081830303815290604052915050919050565b600073ffffffffffffffffffffffffffffffffffffffff168273ffffffffffffffffffffffffffffffffffffffff161415611793576040517f08c379a000000000000000000000000000000000000000000000000000000000815260040161178a9061293f565b60405180910390fd5b61179c81610fa8565b156117dc576040517f08c379a00000000000000000000000000000000000000000000000000000000081526004016117d39061283f565b60405180910390fd5b6117e8600083836119aa565b6001600360008473ffffffffffffffffffffffffffffffffffffffff1673ffffffffffffffffffffffffffffffffffffffff16815260200190815260200160002060008282546118389190612b23565b92505081905550816002600083815260200190815260200160002060006101000a81548173ffffffffffffffffffffffffffffffffffffffff021916908373ffffffffffffffffffffffffffffffffffffffff160217905550808273ffffffffffffffffffffffffffffffffffffffff16600073ffffffffffffffffffffffffffffffffffffffff167fddf252ad1be2c89b69c2b068fc378daa952ba7f163c4a11628f55a4df523b3ef60405160405180910390a46118f9600083836119af565b5050565b61190682610fa8565b611945576040517f08c379a000000000000000000000000000000000000000000000000000000000815260040161193c9061291f565b60405180910390fd5b8060066000848152602001908152602001600020908051906020019061196c929190611ea5565b505050565b60008484848460405160200161198a949392919061266d565b604051602081830303815290604052805190602001209050949350505050565b505050565b505050565b60006119d58473ffffffffffffffffffffffffffffffffffffffff16611e82565b15611b3e578373ffffffffffffffffffffffffffffffffffffffff1663150b7a026119fe611014565b8786866040518563ffffffff1660e01b8152600401611a20949392919061275b565b602060405180830381600087803b158015611a3a57600080fd5b505af1925050508015611a6b57506040513d601f19601f82011682018060405250810190611a6891906121e9565b60015b611aee573d8060008114611a9b576040519150601f19603f3d011682016040523d82523d6000602084013e611aa0565b606091505b50600081511415611ae6576040517f08c379a0000000000000000000000000000000000000000000000000000000008152600401611add906127ff565b60405180910390fd5b805181602001fd5b63150b7a0260e01b7bffffffffffffffffffffffffffffffffffffffffffffffffffffffff1916817bffffffffffffffffffffffffffffffffffffffffffffffffffffffff191614915050611b43565b600190505b949350505050565b60606000821415611b93576040518060400160405280600181526020017f30000000000000000000000000000000000000000000000000000000000000008152509050611cf3565b600082905060005b60008214611bc5578080611bae90612d5b565b915050600a82611bbe9190612b79565b9150611b9b565b60008167ffffffffffffffff811115611c07577f4e487b7100000000000000000000000000000000000000000000000000000000600052604160045260246000fd5b6040519080825280601f01601f191660200182016040528015611c395781602001600182028036833780820191505090505b5090505b60008514611cec57600182611c529190612c04565b9150600a85611c619190612dd2565b6030611c6d9190612b23565b60f81b818381518110611ca9577f4e487b7100000000000000000000000000000000000000000000000000000000600052603260045260246000fd5b60200101907effffffffffffffffffffffffffffffffffffffffffffffffffffffffffffff1916908160001a905350600a85611ce59190612b79565b9450611c3d565b8093505050505b919050565b6060600082511415611d1b57604051806020016040528060008152509050611e7d565b60006040518060600160405280604081526020016134fd6040913990506000600360028551611d4a9190612b23565b611d549190612b79565b6004611d609190612baa565b67ffffffffffffffff811115611d9f577f4e487b7100000000000000000000000000000000000000000000000000000000600052604160045260246000fd5b6040519080825280601f01601f191660200182016040528015611dd15781602001600182028036833780820191505090505b509050600182016020820185865187015b80821015611e3d576003820191508151603f8160121c168501518453600184019350603f81600c1c168501518453600184019350603f8160061c168501518453600184019350603f8116850151845360018401935050611de2565b5050600386510660018114611e595760028114611e6c57611e74565b603d6001830353603d6002830353611e74565b603d60018303535b50505080925050505b919050565b6000808273ffffffffffffffffffffffffffffffffffffffff163b119050919050565b828054611eb190612cf8565b90600052602060002090601f016020900481019282611ed35760008555611f1a565b82601f10611eec57805160ff1916838001178555611f1a565b82800160010185558215611f1a579182015b82811115611f19578251825591602001919060010190611efe565b5b509050611f279190611f2b565b5090565b5b80821115611f44576000816000905550600101611f2c565b5090565b6000611f5b611f5684612aaf565b612a8a565b905082815260208101848484011115611f7357600080fd5b611f7e848285612cb6565b509392505050565b600081359050611f95816134a0565b92915050565b600081359050611faa816134b7565b92915050565b600081359050611fbf816134ce565b92915050565b600081519050611fd4816134ce565b92915050565b600082601f830112611feb57600080fd5b8135611ffb848260208601611f48565b91505092915050565b600081359050612013816134e5565b92915050565b60006020828403121561202b57600080fd5b600061203984828501611f86565b91505092915050565b6000806040838503121561205557600080fd5b600061206385828601611f86565b925050602061207485828601611f86565b9150509250929050565b60008060006060848603121561209357600080fd5b60006120a186828701611f86565b93505060206120b286828701611f86565b92505060406120c386828701612004565b9150509250925092565b600080600080608085870312156120e357600080fd5b60006120f187828801611f86565b945050602061210287828801611f86565b935050604061211387828801612004565b925050606085013567ffffffffffffffff81111561213057600080fd5b61213c87828801611fda565b91505092959194509250565b6000806040838503121561215b57600080fd5b600061216985828601611f86565b925050602061217a85828601611f9b565b9150509250929050565b6000806040838503121561219757600080fd5b60006121a585828601611f86565b92505060206121b685828601612004565b9150509250929050565b6000602082840312156121d257600080fd5b60006121e084828501611fb0565b91505092915050565b6000602082840312156121fb57600080fd5b600061220984828501611fc5565b91505092915050565b60006020828403121561222457600080fd5b600061223284828501612004565b91505092915050565b61224481612c38565b82525050565b61225b61225682612c38565b612da4565b82525050565b61226a81612c4a565b82525050565b61227981612c56565b82525050565b600061228a82612ae0565b6122948185612af6565b93506122a4818560208601612cc5565b6122ad81612ebf565b840191505092915050565b60006122c382612aeb565b6122cd8185612b07565b93506122dd818560208601612cc5565b6122e681612ebf565b840191505092915050565b60006122fc82612aeb565b6123068185612b18565b9350612316818560208601612cc5565b80840191505092915050565b600061232f603283612b07565b915061233a82612edd565b604082019050919050565b6000612352602583612b07565b915061235d82612f2c565b604082019050919050565b6000612375601c83612b07565b915061238082612f7b565b602082019050919050565b6000612398601483612b18565b91506123a382612fa4565b601482019050919050565b60006123bb602483612b07565b91506123c682612fcd565b604082019050919050565b60006123de601983612b07565b91506123e98261301c565b602082019050919050565b6000612401602c83612b07565b915061240c82613045565b604082019050919050565b6000612424603883612b07565b915061242f82613094565b604082019050919050565b6000612447602a83612b07565b9150612452826130e3565b604082019050919050565b600061246a602983612b07565b915061247582613132565b604082019050919050565b600061248d602e83612b07565b915061249882613181565b604082019050919050565b60006124b0602083612b07565b91506124bb826131d0565b602082019050919050565b60006124d3603183612b07565b91506124de826131f9565b604082019050919050565b60006124f6602c83612b07565b915061250182613248565b604082019050919050565b6000612519601c83612b07565b915061252482613297565b602082019050919050565b600061253c602f83612b07565b9150612547826132c0565b604082019050919050565b600061255f600183612b18565b915061256a8261330f565b600182019050919050565b6000612582600d83612b07565b915061258d82613338565b602082019050919050565b60006125a5602183612b07565b91506125b082613361565b604082019050919050565b60006125c8601d83612b18565b91506125d3826133b0565b601d82019050919050565b60006125eb603183612b07565b91506125f6826133d9565b604082019050919050565b600061260e600383612b18565b915061261982613428565b600382019050919050565b6000612631602283612b18565b915061263c82613451565b602282019050919050565b61265081612cac565b82525050565b61266761266282612cac565b612dc8565b82525050565b6000612679828761224a565b601482019150612689828661224a565b6014820191506126998285612656565b6020820191506126a982846122f1565b915081905095945050505050565b60006126c382856122f1565b91506126cf82846122f1565b91508190509392505050565b60006126e682612552565b91506126f18261238b565b91506126fd82846122f1565b915061270882612601565b915061271382612624565b915081905092915050565b6000612729826125bb565b915061273582846122f1565b915081905092915050565b6000602082019050612755600083018461223b565b92915050565b6000608082019050612770600083018761223b565b61277d602083018661223b565b61278a6040830185612647565b818103606083015261279c818461227f565b905095945050505050565b60006020820190506127bc6000830184612261565b92915050565b60006020820190506127d76000830184612270565b92915050565b600060208201905081810360008301526127f781846122b8565b905092915050565b6000602082019050818103600083015261281881612322565b9050919050565b6000602082019050818103600083015261283881612345565b9050919050565b6000602082019050818103600083015261285881612368565b9050919050565b60006020820190508181036000830152612878816123ae565b9050919050565b60006020820190508181036000830152612898816123d1565b9050919050565b600060208201905081810360008301526128b8816123f4565b9050919050565b600060208201905081810360008301526128d881612417565b9050919050565b600060208201905081810360008301526128f88161243a565b9050919050565b600060208201905081810360008301526129188161245d565b9050919050565b6000602082019050818103600083015261293881612480565b9050919050565b60006020820190508181036000830152612958816124a3565b9050919050565b60006020820190508181036000830152612978816124c6565b9050919050565b60006020820190508181036000830152612998816124e9565b9050919050565b600060208201905081810360008301526129b88161250c565b9050919050565b600060208201905081810360008301526129d88161252f565b9050919050565b600060208201905081810360008301526129f881612575565b9050919050565b60006020820190508181036000830152612a1881612598565b9050919050565b60006020820190508181036000830152612a38816125de565b9050919050565b6000602082019050612a546000830184612647565b92915050565b6000604082019050612a6f6000830185612647565b8181036020830152612a8181846122b8565b90509392505050565b6000612a94612aa5565b9050612aa08282612d2a565b919050565b6000604051905090565b600067ffffffffffffffff821115612aca57612ac9612e90565b5b612ad382612ebf565b9050602081019050919050565b600081519050919050565b600081519050919050565b600082825260208201905092915050565b600082825260208201905092915050565b600081905092915050565b6000612b2e82612cac565b9150612b3983612cac565b9250827fffffffffffffffffffffffffffffffffffffffffffffffffffffffffffffffff03821115612b6e57612b6d612e03565b5b828201905092915050565b6000612b8482612cac565b9150612b8f83612cac565b925082612b9f57612b9e612e32565b5b828204905092915050565b6000612bb582612cac565b9150612bc083612cac565b9250817fffffffffffffffffffffffffffffffffffffffffffffffffffffffffffffffff0483118215151615612bf957612bf8612e03565b5b828202905092915050565b6000612c0f82612cac565b9150612c1a83612cac565b925082821015612c2d57612c2c612e03565b5b828203905092915050565b6000612c4382612c8c565b9050919050565b60008115159050919050565b6000819050919050565b60007fffffffff0000000000000000000000000000000000000000000000000000000082169050919050565b600073ffffffffffffffffffffffffffffffffffffffff82169050919050565b6000819050919050565b82818337600083830152505050565b60005b83811015612ce3578082015181840152602081019050612cc8565b83811115612cf2576000848401525b50505050565b60006002820490506001821680612d1057607f821691505b60208210811415612d2457612d23612e61565b5b50919050565b612d3382612ebf565b810181811067ffffffffffffffff82111715612d5257612d51612e90565b5b80604052505050565b6000612d6682612cac565b91507fffffffffffffffffffffffffffffffffffffffffffffffffffffffffffffffff821415612d9957612d98612e03565b5b600182019050919050565b6000612daf82612db6565b9050919050565b6000612dc182612ed0565b9050919050565b6000819050919050565b6000612ddd82612cac565b9150612de883612cac565b925082612df857612df7612e32565b5b828206905092915050565b7f4e487b7100000000000000000000000000000000000000000000000000000000600052601160045260246000fd5b7f4e487b7100000000000000000000000000000000000000000000000000000000600052601260045260246000fd5b7f4e487b7100000000000000000000000000000000000000000000000000000000600052602260045260246000fd5b7f4e487b7100000000000000000000000000000000000000000000000000000000600052604160045260246000fd5b6000601f19601f8301169050919050565b60008160601b9050919050565b7f4552433732313a207472616e7366657220746f206e6f6e20455243373231526560008201527f63656976657220696d706c656d656e7465720000000000000000000000000000602082015250565b7f4552433732313a207472616e736665722066726f6d20696e636f72726563742060008201527f6f776e6572000000000000000000000000000000000000000000000000000000602082015250565b7f4552433732313a20746f6b656e20616c7265616479206d696e74656400000000600082015250565b7f226e616d65223a2022426f6f6d6572616e672023000000000000000000000000600082015250565b7f4552433732313a207472616e7366657220746f20746865207a65726f2061646460008201527f7265737300000000000000000000000000000000000000000000000000000000602082015250565b7f4552433732313a20617070726f766520746f2063616c6c657200000000000000600082015250565b7f4552433732313a206f70657261746f7220717565727920666f72206e6f6e657860008201527f697374656e7420746f6b656e0000000000000000000000000000000000000000602082015250565b7f4552433732313a20617070726f76652063616c6c6572206973206e6f74206f7760008201527f6e6572206e6f7220617070726f76656420666f7220616c6c0000000000000000602082015250565b7f4552433732313a2062616c616e636520717565727920666f7220746865207a6560008201527f726f206164647265737300000000000000000000000000000000000000000000602082015250565b7f4552433732313a206f776e657220717565727920666f72206e6f6e657869737460008201527f656e7420746f6b656e0000000000000000000000000000000000000000000000602082015250565b7f45524337323155524953746f726167653a2055524920736574206f66206e6f6e60008201527f6578697374656e7420746f6b656e000000000000000000000000000000000000602082015250565b7f4552433732313a206d696e7420746f20746865207a65726f2061646472657373600082015250565b7f45524337323155524953746f726167653a2055524920717565727920666f722060008201527f6e6f6e6578697374656e7420746f6b656e000000000000000000000000000000602082015250565b7f4552433732313a20617070726f76656420717565727920666f72206e6f6e657860008201527f697374656e7420746f6b656e0000000000000000000000000000000000000000602082015250565b7f4e6f7420656e6f75676820657468657220746f206d696e74204e465400000000600082015250565b7f4552433732314d657461646174613a2055524920717565727920666f72206e6f60008201527f6e6578697374656e7420746f6b656e0000000000000000000000000000000000602082015250565b7f7b00000000000000000000000000000000000000000000000000000000000000600082015250565b7f4e46547320736f6c64206f757400000000000000000000000000000000000000600082015250565b7f4552433732313a20617070726f76616c20746f2063757272656e74206f776e6560008201527f7200000000000000000000000000000000000000000000000000000000000000602082015250565b7f646174613a6170706c69636174696f6e2f6a736f6e3b6261736536342c000000600082015250565b7f4552433732313a207472616e736665722063616c6c6572206973206e6f74206f60008201527f776e6572206e6f7220617070726f766564000000000000000000000000000000602082015250565b7f222c200000000000000000000000000000000000000000000000000000000000600082015250565b7f226465736372697074696f6e223a2022576f6f64656e20626f6f6d6572616e6760008201527f227d000000000000000000000000000000000000000000000000000000000000602082015250565b6134a981612c38565b81146134b457600080fd5b50565b6134c081612c4a565b81146134cb57600080fd5b50565b6134d781612c60565b81146134e257600080fd5b50565b6134ee81612cac565b81146134f957600080fd5b5056fe4142434445464748494a4b4c4d4e4f505152535455565758595a6162636465666768696a6b6c6d6e6f707172737475767778797a303132333435363738392b2fa264697066735822122005cb66f3ef4bbf145a143ba0ed99f8a2ab56fba757c318757204f593ad38234864736f6c634300080100336080604052600860015534801561001557600080fd5b506001805460026100269190610123565b610030919061017d565b67ffffffffffffffff81111561006f577f4e487b7100000000000000000000000000000000000000000000000000000000600052604160045260246000fd5b60405190808252806020026020018201604052801561009d5781602001602082028036833780820191505090505b50600090805190602001906100b39291906100b9565b506101ea565b8280548282559060005260206000209081019282156100f5579160200282015b828111156100f45782518255916020019190600101906100d9565b5b5090506101029190610106565b5090565b5b8082111561011f576000816000905550600101610107565b5090565b600061012e826101b1565b9150610139836101b1565b9250817fffffffffffffffffffffffffffffffffffffffffffffffffffffffffffffffff0483118215151615610172576101716101bb565b5b828202905092915050565b6000610188826101b1565b9150610193836101b1565b9250828210156101a6576101a56101bb565b5b828203905092915050565b6000819050919050565b7f4e487b7100000000000000000000000000000000000000000000000000000000600052601160045260246000fd5b610746806101f96000396000f3fe608060405234801561001057600080fd5b50600436106100575760003560e01c80632c95ad521461005c578063501895ae146100785780635ca1e165146100a8578063a98d8a0a146100c6578063d8c6b181146100e4575b600080fd5b610076600480360381019061007191906103fc565b610102565b005b610092600480360381019061008d9190610425565b6101b2565b60405161009f91906104d2565b60405180910390f35b6100b06101d6565b6040516100bd91906104d2565b60405180910390f35b6100ce610232565b6040516100db919061050d565b60405180910390f35b6100ec610238565b6040516100f9919061050d565b60405180910390f35b60015460025410610148576040517f08c379a000000000000000000000000000000000000000000000000000000000815260040161013f906104ed565b60405180910390fd5b8060006002600081548092919061015e90610608565b9190505581548110610199577f4e487b7100000000000000000000000000000000000000000000000000000000600052603260045260246000fd5b90600052602060002001819055506101af61023e565b50565b600081815481106101c257600080fd5b906000526020600020016000915090505481565b60008060016000805490506101eb91906105c0565b81548110610222577f4e487b7100000000000000000000000000000000000000000000000000000000600052603260045260246000fd5b9060005260206000200154905090565b60015481565b60025481565b600060015490506000600154905060005b60008311156103cd5760005b60018461026891906105c0565b8110156103aa576000818361027d9190610539565b815481106102b4577f4e487b7100000000000000000000000000000000000000000000000000000000600052603260045260246000fd5b90600052602060002001546000600183856102cf9190610539565b6102d99190610539565b81548110610310577f4e487b7100000000000000000000000000000000000000000000000000000000600052603260045260246000fd5b906000526020600020015460405160200161032c9291906104a6565b604051602081830303815290604052805190602001206000848061034f90610608565b955081548110610388577f4e487b7100000000000000000000000000000000000000000000000000000000600052603260045260246000fd5b90600052602060002001819055506002816103a39190610539565b905061025b565b5082816103b79190610539565b90506002836103c6919061058f565b925061024f565b505050565b6000813590506103e1816106e2565b92915050565b6000813590506103f6816106f9565b92915050565b60006020828403121561040e57600080fd5b600061041c848285016103d2565b91505092915050565b60006020828403121561043757600080fd5b6000610445848285016103e7565b91505092915050565b610457816105f4565b82525050565b61046e610469826105f4565b610651565b82525050565b6000610481601f83610528565b915061048c826106b9565b602082019050919050565b6104a0816105fe565b82525050565b60006104b2828561045d565b6020820191506104c2828461045d565b6020820191508190509392505050565b60006020820190506104e7600083018461044e565b92915050565b6000602082019050818103600083015261050681610474565b9050919050565b60006020820190506105226000830184610497565b92915050565b600082825260208201905092915050565b6000610544826105fe565b915061054f836105fe565b9250827fffffffffffffffffffffffffffffffffffffffffffffffffffffffffffffffff038211156105845761058361065b565b5b828201905092915050565b600061059a826105fe565b91506105a5836105fe565b9250826105b5576105b461068a565b5b828204905092915050565b60006105cb826105fe565b91506105d6836105fe565b9250828210156105e9576105e861065b565b5b828203905092915050565b6000819050919050565b6000819050919050565b6000610613826105fe565b91507fffffffffffffffffffffffffffffffffffffffffffffffffffffffffffffffff8214156106465761064561065b565b5b600182019050919050565b6000819050919050565b7f4e487b7100000000000000000000000000000000000000000000000000000000600052601160045260246000fd5b7f4e487b7100000000000000000000000000000000000000000000000000000000600052601260045260246000fd5b7f4d6178696d756d206e756d626572206f66206d696e7473207265616368656400600082015250565b6106eb816105f4565b81146106f657600080fd5b50565b610702816105fe565b811461070d57600080fd5b5056fea26469706673582212206becec649f550351e9f88d9998c45d02a14683d969a41fa03ad2f9856dc1d4ae64736f6c63430008010033",
  "linkReferences": {},
  "deployedLinkReferences": {}
}